{
  "transactions": [
    {
      "hash": "0x73d4316e65da90f5076434fb665f5bc945a34aaed723be98b50da052e6b70dd3",
      "transactionType": "CALL",
      "contractName": "LinkToken",
      "contractAddress": "0x779877a7b0d9e8603169ddbd7836e478b4624789",
      "function": "transferAndCall(address,uint256,bytes)",
      "arguments": [
        "0x8103B0A8A00be2DDC778e6e7eaa21791Cd364625",
        "3000000000000000000",
        "0x0000000000000000000000000000000000000000000000000000000000002cbc"
      ],
      "transaction": {
        "from": "0xe6f2d327df0c20f7f87bfbaf6ef34be18587e135",
        "to": "0x779877a7b0d9e8603169ddbd7836e478b4624789",
        "gas": "0x13fbe",
        "value": "0x0",
        "input": "0x4000aea00000000000000000000000008103b0a8a00be2ddc778e6e7eaa21791cd36462500000000000000000000000000000000000000000000000029a2241af62c0000000000000000000000000000000000000000000000000000000000000000006000000000000000000000000000000000000000000000000000000000000000200000000000000000000000000000000000000000000000000000000000002cbc",
        "nonce": "0x2c",
        "chainId": "0xaa36a7"
      },
      "additionalContracts": [],
      "isFixedGasLimit": false
    }
  ],
  "receipts": [
    {
      "status": "0x1",
      "cumulativeGasUsed": "0x4fa999",
      "logs": [
        {
          "address": "0x779877a7b0d9e8603169ddbd7836e478b4624789",
          "topics": [
            "0xddf252ad1be2c89b69c2b068fc378daa952ba7f163c4a11628f55a4df523b3ef",
            "0x000000000000000000000000e6f2d327df0c20f7f87bfbaf6ef34be18587e135",
            "0x0000000000000000000000008103b0a8a00be2ddc778e6e7eaa21791cd364625"
          ],
          "data": "0x00000000000000000000000000000000000000000000000029a2241af62c0000",
          "blockHash": "0x5420c62c3d9d3dac567d9bee8ae724644c9638ef7c41fbc09365a1224eebf75e",
          "blockNumber": "0x595e84",
          "transactionHash": "0x73d4316e65da90f5076434fb665f5bc945a34aaed723be98b50da052e6b70dd3",
          "transactionIndex": "0x25",
          "logIndex": "0x53",
          "removed": false
        },
        {
          "address": "0x779877a7b0d9e8603169ddbd7836e478b4624789",
          "topics": [
            "0xe19260aff97b920c7df27010903aeb9c8d2be5d310a2c67824cf3f15396e4c16",
            "0x000000000000000000000000e6f2d327df0c20f7f87bfbaf6ef34be18587e135",
            "0x0000000000000000000000008103b0a8a00be2ddc778e6e7eaa21791cd364625"
          ],
          "data": "0x00000000000000000000000000000000000000000000000029a2241af62c0000000000000000000000000000000000000000000000000000000000000000004000000000000000000000000000000000000000000000000000000000000000200000000000000000000000000000000000000000000000000000000000002cbc",
          "blockHash": "0x5420c62c3d9d3dac567d9bee8ae724644c9638ef7c41fbc09365a1224eebf75e",
          "blockNumber": "0x595e84",
          "transactionHash": "0x73d4316e65da90f5076434fb665f5bc945a34aaed723be98b50da052e6b70dd3",
          "transactionIndex": "0x25",
          "logIndex": "0x54",
          "removed": false
        },
        {
          "address": "0x8103b0a8a00be2ddc778e6e7eaa21791cd364625",
          "topics": [
            "0xd39ec07f4e209f627a4c427971473820dc129761ba28de8906bd56f57101d4f8",
            "0x0000000000000000000000000000000000000000000000000000000000002cbc"
          ],
          "data": "0x00000000000000000000000000000000000000000000000029a2241af62c000000000000000000000000000000000000000000000000000053444835ec580000",
          "blockHash": "0x5420c62c3d9d3dac567d9bee8ae724644c9638ef7c41fbc09365a1224eebf75e",
          "blockNumber": "0x595e84",
          "transactionHash": "0x73d4316e65da90f5076434fb665f5bc945a34aaed723be98b50da052e6b70dd3",
          "transactionIndex": "0x25",
          "logIndex": "0x55",
          "removed": false
        }
      ],
      "logsBloom": "0x0000001400000000000000020008000000000000000000020000000002000000000000000000800000000000000000000400000000000000000000000000000000000000000000000000000800000000000000000000000000002000000000000000000008004000000000000000000000000000400000000000001000000000000000000c000020000000000000804010000020000000000000000000000000000000000000000000000000000000000000000000000000000400000000000000000002000000000000000000000000000000000000000100000000000000000000000000000000000000000000000000000000000000000000000000000000",
      "type": "0x2",
      "transactionHash": "0x73d4316e65da90f5076434fb665f5bc945a34aaed723be98b50da052e6b70dd3",
      "transactionIndex": "0x25",
      "blockHash": "0x5420c62c3d9d3dac567d9bee8ae724644c9638ef7c41fbc09365a1224eebf75e",
      "blockNumber": "0x595e84",
      "gasUsed": "0xe77e",
      "effectiveGasPrice": "0x393fa76dd",
      "from": "0xe6f2d327df0c20f7f87bfbaf6ef34be18587e135",
      "to": "0x779877a7b0d9e8603169ddbd7836e478b4624789",
      "contractAddress": null
    }
  ],
  "libraries": [],
  "pending": [],
  "returns": {},
  "timestamp": 1715111403,
  "chain": 11155111,
  "commit": "70737a8"
}